{
  "contractName": "Deposit",
  "abi": [
    {
      "anonymous": false,
      "inputs": [
        {
          "indexed": false,
          "internalType": "string",
          "name": "",
          "type": "string"
        }
      ],
      "name": "Log",
      "type": "event"
    },
    {
      "inputs": [
        {
          "internalType": "address",
          "name": "",
          "type": "address"
        },
        {
          "internalType": "uint256",
          "name": "",
          "type": "uint256"
        }
      ],
      "name": "depositSlips",
      "outputs": [
        {
          "internalType": "uint256",
          "name": "createTime",
          "type": "uint256"
        },
        {
          "internalType": "uint256",
          "name": "expireDate",
          "type": "uint256"
        },
        {
          "internalType": "uint256",
          "name": "amount",
          "type": "uint256"
        },
        {
          "internalType": "bool",
          "name": "valid",
          "type": "bool"
        },
        {
          "internalType": "bool",
          "name": "isETH",
          "type": "bool"
        },
        {
          "internalType": "address",
          "name": "contractAddr",
          "type": "address"
        }
      ],
      "stateMutability": "view",
      "type": "function",
      "constant": true
    },
    {
      "stateMutability": "payable",
      "type": "receive",
      "payable": true
    },
    {
      "inputs": [
        {
          "internalType": "uint256",
          "name": "expireDate",
          "type": "uint256"
        }
      ],
      "name": "saveETH",
      "outputs": [
        {
          "internalType": "uint256",
          "name": "",
          "type": "uint256"
        }
      ],
      "stateMutability": "payable",
      "type": "function",
      "payable": true
    },
    {
      "inputs": [
        {
          "internalType": "uint256",
          "name": "value",
          "type": "uint256"
        },
        {
          "internalType": "uint256",
          "name": "expireDate",
          "type": "uint256"
        },
        {
          "internalType": "address",
          "name": "contractAddr",
          "type": "address"
        }
      ],
      "name": "saveERC20",
      "outputs": [
        {
          "internalType": "uint256",
          "name": "",
          "type": "uint256"
        }
      ],
      "stateMutability": "payable",
      "type": "function",
      "payable": true
    },
    {
      "inputs": [
        {
          "internalType": "uint256",
          "name": "index",
          "type": "uint256"
        }
      ],
      "name": "redemption",
      "outputs": [
        {
          "internalType": "bool",
          "name": "",
          "type": "bool"
        }
      ],
      "stateMutability": "nonpayable",
      "type": "function"
    },
    {
      "inputs": [
        {
          "internalType": "address",
          "name": "addr",
          "type": "address"
        }
      ],
      "name": "getDepositSlips",
      "outputs": [
        {
          "components": [
            {
              "internalType": "uint256",
              "name": "createTime",
              "type": "uint256"
            },
            {
              "internalType": "uint256",
              "name": "expireDate",
              "type": "uint256"
            },
            {
              "internalType": "uint256",
              "name": "amount",
              "type": "uint256"
            },
            {
              "internalType": "bool",
              "name": "valid",
              "type": "bool"
            },
            {
              "internalType": "bool",
              "name": "isETH",
              "type": "bool"
            },
            {
              "internalType": "address",
              "name": "contractAddr",
              "type": "address"
            }
          ],
          "internalType": "struct Deposit.DepositSlip[]",
          "name": "",
          "type": "tuple[]"
        }
      ],
      "stateMutability": "view",
      "type": "function",
      "constant": true
    },
    {
      "inputs": [],
      "name": "getMyDepositSlips",
      "outputs": [
        {
          "components": [
            {
              "internalType": "uint256",
              "name": "createTime",
              "type": "uint256"
            },
            {
              "internalType": "uint256",
              "name": "expireDate",
              "type": "uint256"
            },
            {
              "internalType": "uint256",
              "name": "amount",
              "type": "uint256"
            },
            {
              "internalType": "bool",
              "name": "valid",
              "type": "bool"
            },
            {
              "internalType": "bool",
              "name": "isETH",
              "type": "bool"
            },
            {
              "internalType": "address",
              "name": "contractAddr",
              "type": "address"
            }
          ],
          "internalType": "struct Deposit.DepositSlip[]",
          "name": "",
          "type": "tuple[]"
        }
      ],
      "stateMutability": "view",
      "type": "function",
      "constant": true
    }
  ],
  "bytecode": "0x608060405234801561001057600080fd5b506111c2806100206000396000f3fe6080604052600436106100595760003560e01c8063057382df146100e15780631487bc25146101115780632377d11f146101415780634a1dc09214610183578063ea28227d146101c0578063f624af45146101fd576100dc565b366100dc573373ffffffffffffffffffffffffffffffffffffffff166108fc349081150290604051600060405180830381858888f193505050501580156100a4573d6000803e3d6000fd5b507fcf34ef537ac33ee1ac626ca1587a0a7e8e51561e5514f8cb36afa1c5102b3bab6040516100d290610ee9565b60405180910390a1005b600080fd5b6100fb60048036038101906100f69190610b5a565b610228565b6040516101089190610f09565b60405180910390f35b61012b60048036038101906101269190610b83565b61039f565b6040516101389190610f09565b60405180910390f35b34801561014d57600080fd5b5061016860048036038101906101639190610af5565b6105eb565b60405161017a96959493929190610f24565b60405180910390f35b34801561018f57600080fd5b506101aa60048036038101906101a59190610b5a565b61067e565b6040516101b79190610e4e565b60405180910390f35b3480156101cc57600080fd5b506101e760048036038101906101e29190610acc565b610936565b6040516101f49190610e2c565b60405180910390f35b34801561020957600080fd5b50610212610a7d565b60405161021f9190610e2c565b60405180910390f35b6000806000803373ffffffffffffffffffffffffffffffffffffffff1673ffffffffffffffffffffffffffffffffffffffff1681526020019081526020016000209050806040518060c00160405280428152602001858152602001348152602001600115158152602001600115158152602001600073ffffffffffffffffffffffffffffffffffffffff16815250908060018154018082558091505060019003906000526020600020906004020160009091909190915060008201518160000155602082015181600101556040820151816002015560608201518160030160006101000a81548160ff02191690831515021790555060808201518160030160016101000a81548160ff02191690831515021790555060a08201518160030160026101000a81548173ffffffffffffffffffffffffffffffffffffffff021916908373ffffffffffffffffffffffffffffffffffffffff1602179055505050600181805490506103979190610fcf565b915050919050565b6000808290508073ffffffffffffffffffffffffffffffffffffffff166323b872dd3033886040518463ffffffff1660e01b81526004016103e293929190610dcc565b602060405180830381600087803b1580156103fc57600080fd5b505af1158015610410573d6000803e3d6000fd5b505050506040513d601f19601f820116820180604052508101906104349190610b31565b610473576040517f08c379a000000000000000000000000000000000000000000000000000000000815260040161046a90610ea9565b60405180910390fd5b60008060003373ffffffffffffffffffffffffffffffffffffffff1673ffffffffffffffffffffffffffffffffffffffff1681526020019081526020016000209050806040518060c001604052804281526020018781526020018881526020016001151581526020016000151581526020018673ffffffffffffffffffffffffffffffffffffffff16815250908060018154018082558091505060019003906000526020600020906004020160009091909190915060008201518160000155602082015181600101556040820151816002015560608201518160030160006101000a81548160ff02191690831515021790555060808201518160030160016101000a81548160ff02191690831515021790555060a08201518160030160026101000a81548173ffffffffffffffffffffffffffffffffffffffff021916908373ffffffffffffffffffffffffffffffffffffffff1602179055505050600181805490506105e09190610fcf565b925050509392505050565b6000602052816000526040600020818154811061060757600080fd5b9060005260206000209060040201600091509150508060000154908060010154908060020154908060030160009054906101000a900460ff16908060030160019054906101000a900460ff16908060030160029054906101000a900473ffffffffffffffffffffffffffffffffffffffff16905086565b6000806000803373ffffffffffffffffffffffffffffffffffffffff1673ffffffffffffffffffffffffffffffffffffffff168152602001908152602001600020905080805490508310610707576040517f08c379a00000000000000000000000000000000000000000000000000000000081526004016106fe90610ec9565b60405180910390fd5b6000818481548110610742577f4e487b7100000000000000000000000000000000000000000000000000000000600052603260045260246000fd5b906000526020600020906004020190508060030160009054906101000a900460ff166107a3576040517f08c379a000000000000000000000000000000000000000000000000000000000815260040161079a90610e89565b60405180910390fd5b80600101544210156107ea576040517f08c379a00000000000000000000000000000000000000000000000000000000081526004016107e190610e69565b60405180910390fd5b8060030160019054906101000a900460ff1615610851573373ffffffffffffffffffffffffffffffffffffffff166108fc82600201549081150290604051600060405180830381858888f1935050505015801561084b573d6000803e3d6000fd5b5061090e565b60008160030160029054906101000a900473ffffffffffffffffffffffffffffffffffffffff1690508073ffffffffffffffffffffffffffffffffffffffff1663a9059cbb3384600201546040518363ffffffff1660e01b81526004016108b9929190610e03565b602060405180830381600087803b1580156108d357600080fd5b505af11580156108e7573d6000803e3d6000fd5b505050506040513d601f19601f8201168201806040525081019061090b9190610b31565b50505b60008160030160006101000a81548160ff021916908315150217905550600192505050919050565b60606000808373ffffffffffffffffffffffffffffffffffffffff1673ffffffffffffffffffffffffffffffffffffffff168152602001908152602001600020805480602002602001604051908101604052809291908181526020016000905b82821015610a7257838290600052602060002090600402016040518060c00160405290816000820154815260200160018201548152602001600282015481526020016003820160009054906101000a900460ff161515151581526020016003820160019054906101000a900460ff161515151581526020016003820160029054906101000a900473ffffffffffffffffffffffffffffffffffffffff1673ffffffffffffffffffffffffffffffffffffffff1673ffffffffffffffffffffffffffffffffffffffff168152505081526020019060010190610996565b505050509050919050565b6060610a8833610936565b905090565b600081359050610a9c81611147565b92915050565b600081519050610ab18161115e565b92915050565b600081359050610ac681611175565b92915050565b600060208284031215610ade57600080fd5b6000610aec84828501610a8d565b91505092915050565b60008060408385031215610b0857600080fd5b6000610b1685828601610a8d565b9250506020610b2785828601610ab7565b9150509250929050565b600060208284031215610b4357600080fd5b6000610b5184828501610aa2565b91505092915050565b600060208284031215610b6c57600080fd5b6000610b7a84828501610ab7565b91505092915050565b600080600060608486031215610b9857600080fd5b6000610ba686828701610ab7565b9350506020610bb786828701610ab7565b9250506040610bc886828701610a8d565b9150509250925092565b6000610bde8383610d33565b60c08301905092915050565b610bf381611003565b82525050565b610c0281611003565b82525050565b6000610c1382610f95565b610c1d8185610fad565b9350610c2883610f85565b8060005b83811015610c59578151610c408882610bd2565b9750610c4b83610fa0565b925050600181019050610c2c565b5085935050505092915050565b610c6f81611015565b82525050565b610c7e81611015565b82525050565b6000610c91601f83610fbe565b9150610c9c8261107a565b602082019050919050565b6000610cb4601483610fbe565b9150610cbf826110a3565b602082019050919050565b6000610cd7601783610fbe565b9150610ce2826110cc565b602082019050919050565b6000610cfa601b83610fbe565b9150610d05826110f5565b602082019050919050565b6000610d1d600d83610fbe565b9150610d288261111e565b602082019050919050565b60c082016000820151610d496000850182610dae565b506020820151610d5c6020850182610dae565b506040820151610d6f6040850182610dae565b506060820151610d826060850182610c66565b506080820151610d956080850182610c66565b5060a0820151610da860a0850182610bea565b50505050565b610db781611041565b82525050565b610dc681611041565b82525050565b6000606082019050610de16000830186610bf9565b610dee6020830185610bf9565b610dfb6040830184610dbd565b949350505050565b6000604082019050610e186000830185610bf9565b610e256020830184610dbd565b9392505050565b60006020820190508181036000830152610e468184610c08565b905092915050565b6000602082019050610e636000830184610c75565b92915050565b60006020820190508181036000830152610e8281610c84565b9050919050565b60006020820190508181036000830152610ea281610ca7565b9050919050565b60006020820190508181036000830152610ec281610cca565b9050919050565b60006020820190508181036000830152610ee281610ced565b9050919050565b60006020820190508181036000830152610f0281610d10565b9050919050565b6000602082019050610f1e6000830184610dbd565b92915050565b600060c082019050610f396000830189610dbd565b610f466020830188610dbd565b610f536040830187610dbd565b610f606060830186610c75565b610f6d6080830185610c75565b610f7a60a0830184610bf9565b979650505050505050565b6000819050602082019050919050565b600081519050919050565b6000602082019050919050565b600082825260208201905092915050565b600082825260208201905092915050565b6000610fda82611041565b9150610fe583611041565b925082821015610ff857610ff761104b565b5b828203905092915050565b600061100e82611021565b9050919050565b60008115159050919050565b600073ffffffffffffffffffffffffffffffffffffffff82169050919050565b6000819050919050565b7f4e487b7100000000000000000000000000000000000000000000000000000000600052601160045260246000fd5b7f546865206465706f73697420736c6970206973206e6f74207965742064756500600082015250565b7f496e76616c6964206465706f73697420736c6970000000000000000000000000600082015250565b7f616c6c6f77616e6365206973206e6f7420656e6f756768000000000000000000600082015250565b7f4465706f73697420736c697020646f6573206e6f742065786973740000000000600082015250565b7f646f6e2774206675636b206d6500000000000000000000000000000000000000600082015250565b61115081611003565b811461115b57600080fd5b50565b61116781611015565b811461117257600080fd5b50565b61117e81611041565b811461118957600080fd5b5056fea26469706673582212204ef02764f4e045298ea73c029f945a0253d9f39a1ad904b9422e311287c14f4964736f6c63430008040033",
  "immutableReferences": {},
  "source": "// SPDX-License-Identifier: MIT\npragma solidity 0.8.4;\n\nimport \"./TestCoin.sol\";\n\n// \ncontract Deposit {\n  // \n  struct DepositSlip {\n    // \n    uint createTime;\n    // \n    uint expireDate;\n    // \n    uint amount;\n    // \n    bool valid;\n    // ETHERC20\n    bool isETH;\n    // ERC20\n    address contractAddr;\n  }\n\n  // \n  event Log(string);\n\n  // \n  mapping (address => DepositSlip[]) public depositSlips;\n\n  // \n  function saveETH(uint expireDate)\n  public payable returns (uint) {\n    DepositSlip[] storage myDepositSlips = depositSlips[msg.sender];\n    myDepositSlips.push(DepositSlip({\n      createTime: block.timestamp,\n      expireDate: expireDate,\n      amount: msg.value,\n      valid: true,\n      isETH: true,\n      contractAddr: address(0)\n    }));\n    return myDepositSlips.length - 1;\n  }\n\n  // \n  function saveERC20(\n    uint value,\n    uint expireDate,\n    address contractAddr\n  )\n  public payable returns (uint) {\n    TestCoin coin = TestCoin(contractAddr);\n    require(\n      coin.transferFrom(address(this), msg.sender, value),\n      \"allowance is not enough\"\n    );\n    DepositSlip[] storage myDepositSlips = depositSlips[msg.sender];\n    myDepositSlips.push(DepositSlip({\n      createTime: block.timestamp,\n      expireDate: expireDate,\n      amount: value,\n      valid: true,\n      isETH: false,\n      contractAddr: contractAddr\n    }));\n    return myDepositSlips.length - 1;\n  }\n\n\n  // \n  function redemption(uint index)\n  public returns (bool) {\n    DepositSlip[] storage myDepositSlips = depositSlips[msg.sender];\n    require(index < myDepositSlips.length, \"Deposit slip does not exist\");\n    DepositSlip storage depositSlip = myDepositSlips[index];\n    require(depositSlip.valid, \"Invalid deposit slip\");\n    require(block.timestamp >= depositSlip.expireDate, \"The deposit slip is not yet due\");\n    if (depositSlip.isETH) {\n      payable(msg.sender).transfer(depositSlip.amount);\n    } else {\n      TestCoin coin = TestCoin(depositSlip.contractAddr);\n      coin.transfer(msg.sender, depositSlip.amount);\n    }\n    depositSlip.valid = false;\n    return true;\n  }\n\n  // \n  function getDepositSlips(address addr)\n  public view returns (DepositSlip[] memory) {\n    return depositSlips[addr];\n  }\n\n  // \n  function getMyDepositSlips()\n  public view returns (DepositSlip[] memory) {\n    return getDepositSlips(msg.sender);\n  }\n\n  receive()\n  payable external {\n    payable(msg.sender).transfer(msg.value);\n    emit Log(\"don't fuck me\");\n  }\n}\n",
  "sourcePath": "/home/gu/eth/time-deposit/contracts/Deposit.sol",
  "compiler": {
    "name": "solc",
    "version": "0.8.4+commit.c7e474f2.Emscripten.clang"
  },
  "schemaVersion": "3.4.1",
  "updatedAt": "2021-05-31T04:20:53.083Z",
  "networkType": "ethereum",
  "devdoc": {
    "kind": "dev",
    "methods": {},
    "version": 1
  },
  "userdoc": {
    "kind": "user",
    "methods": {},
    "version": 1
  }
}