{
  "contractName": "Deposit",
  "abi": [
    {
      "anonymous": false,
      "inputs": [
        {
          "indexed": false,
          "internalType": "string",
          "name": "",
          "type": "string"
        }
      ],
      "name": "Log",
      "type": "event"
    },
    {
      "inputs": [
        {
          "internalType": "address",
          "name": "",
          "type": "address"
        },
        {
          "internalType": "uint256",
          "name": "",
          "type": "uint256"
        }
      ],
      "name": "depositSlips",
      "outputs": [
        {
          "internalType": "uint256",
          "name": "createTime",
          "type": "uint256"
        },
        {
          "internalType": "uint256",
          "name": "expireDate",
          "type": "uint256"
        },
        {
          "internalType": "uint256",
          "name": "amount",
          "type": "uint256"
        },
        {
          "internalType": "bool",
          "name": "valid",
          "type": "bool"
        },
        {
          "internalType": "bool",
          "name": "isETH",
          "type": "bool"
        },
        {
          "internalType": "address",
          "name": "contractAddr",
          "type": "address"
        }
      ],
      "stateMutability": "view",
      "type": "function",
      "constant": true
    },
    {
      "stateMutability": "payable",
      "type": "receive",
      "payable": true
    },
    {
      "inputs": [
        {
          "internalType": "uint256",
          "name": "expireDate",
          "type": "uint256"
        }
      ],
      "name": "saveETH",
      "outputs": [
        {
          "internalType": "uint256",
          "name": "",
          "type": "uint256"
        }
      ],
      "stateMutability": "payable",
      "type": "function",
      "payable": true
    },
    {
      "inputs": [
        {
          "internalType": "uint256",
          "name": "value",
          "type": "uint256"
        },
        {
          "internalType": "uint256",
          "name": "expireDate",
          "type": "uint256"
        },
        {
          "internalType": "address",
          "name": "contractAddr",
          "type": "address"
        }
      ],
      "name": "saveTEST",
      "outputs": [
        {
          "internalType": "uint256",
          "name": "",
          "type": "uint256"
        }
      ],
      "stateMutability": "payable",
      "type": "function",
      "payable": true
    },
    {
      "inputs": [
        {
          "internalType": "uint256",
          "name": "index",
          "type": "uint256"
        }
      ],
      "name": "redemption",
      "outputs": [
        {
          "internalType": "bool",
          "name": "",
          "type": "bool"
        }
      ],
      "stateMutability": "nonpayable",
      "type": "function"
    }
  ],
  "bytecode": "0x608060405234801561001057600080fd5b50610e4b806100206000396000f3fe6080604052600436106100435760003560e01c8063057382df146100cb5780632377d11f146100fb5780634a1dc0921461013d578063769e00751461017a576100c6565b366100c6573373ffffffffffffffffffffffffffffffffffffffff166108fc349081150290604051600060405180830381858888f1935050505015801561008e573d6000803e3d6000fd5b507fcf34ef537ac33ee1ac626ca1587a0a7e8e51561e5514f8cb36afa1c5102b3bab6040516100bc90610b8b565b60405180910390a1005b600080fd5b6100e560048036038101906100e0919061095c565b6101aa565b6040516100f29190610bcb565b60405180910390f35b34801561010757600080fd5b50610122600480360381019061011d91906108f7565b610321565b60405161013496959493929190610be6565b60405180910390f35b34801561014957600080fd5b50610164600480360381019061015f919061095c565b6103b4565b6040516101719190610b10565b60405180910390f35b610194600480360381019061018f9190610985565b61066c565b6040516101a19190610bcb565b60405180910390f35b6000806000803373ffffffffffffffffffffffffffffffffffffffff1673ffffffffffffffffffffffffffffffffffffffff1681526020019081526020016000209050806040518060c00160405280428152602001858152602001348152602001600115158152602001600115158152602001600073ffffffffffffffffffffffffffffffffffffffff16815250908060018154018082558091505060019003906000526020600020906004020160009091909190915060008201518160000155602082015181600101556040820151816002015560608201518160030160006101000a81548160ff02191690831515021790555060808201518160030160016101000a81548160ff02191690831515021790555060a08201518160030160026101000a81548173ffffffffffffffffffffffffffffffffffffffff021916908373ffffffffffffffffffffffffffffffffffffffff1602179055505050600181805490506103199190610c58565b915050919050565b6000602052816000526040600020818154811061033d57600080fd5b9060005260206000209060040201600091509150508060000154908060010154908060020154908060030160009054906101000a900460ff16908060030160019054906101000a900460ff16908060030160029054906101000a900473ffffffffffffffffffffffffffffffffffffffff16905086565b6000806000803373ffffffffffffffffffffffffffffffffffffffff1673ffffffffffffffffffffffffffffffffffffffff16815260200190815260200160002090508080549050831061043d576040517f08c379a000000000000000000000000000000000000000000000000000000000815260040161043490610b6b565b60405180910390fd5b6000818481548110610478577f4e487b7100000000000000000000000000000000000000000000000000000000600052603260045260246000fd5b906000526020600020906004020190508060030160009054906101000a900460ff166104d9576040517f08c379a00000000000000000000000000000000000000000000000000000000081526004016104d090610b4b565b60405180910390fd5b8060010154421015610520576040517f08c379a000000000000000000000000000000000000000000000000000000000815260040161051790610b2b565b60405180910390fd5b8060030160019054906101000a900460ff1615610587573373ffffffffffffffffffffffffffffffffffffffff166108fc82600201549081150290604051600060405180830381858888f19350505050158015610581573d6000803e3d6000fd5b50610644565b60008160030160029054906101000a900473ffffffffffffffffffffffffffffffffffffffff1690508073ffffffffffffffffffffffffffffffffffffffff1663a9059cbb3384600201546040518363ffffffff1660e01b81526004016105ef929190610ae7565b602060405180830381600087803b15801561060957600080fd5b505af115801561061d573d6000803e3d6000fd5b505050506040513d601f19601f820116820180604052508101906106419190610933565b50505b60008160030160006101000a81548160ff021916908315150217905550600192505050919050565b6000808290508073ffffffffffffffffffffffffffffffffffffffff166323b872dd3033886040518463ffffffff1660e01b81526004016106af93929190610ab0565b602060405180830381600087803b1580156106c957600080fd5b505af11580156106dd573d6000803e3d6000fd5b505050506040513d601f19601f820116820180604052508101906107019190610933565b610740576040517f08c379a000000000000000000000000000000000000000000000000000000000815260040161073790610bab565b60405180910390fd5b60008060003373ffffffffffffffffffffffffffffffffffffffff1673ffffffffffffffffffffffffffffffffffffffff1681526020019081526020016000209050806040518060c001604052804281526020018781526020018881526020016001151581526020016000151581526020018673ffffffffffffffffffffffffffffffffffffffff16815250908060018154018082558091505060019003906000526020600020906004020160009091909190915060008201518160000155602082015181600101556040820151816002015560608201518160030160006101000a81548160ff02191690831515021790555060808201518160030160016101000a81548160ff02191690831515021790555060a08201518160030160026101000a81548173ffffffffffffffffffffffffffffffffffffffff021916908373ffffffffffffffffffffffffffffffffffffffff1602179055505050600181805490506108ad9190610c58565b925050509392505050565b6000813590506108c781610dd0565b92915050565b6000815190506108dc81610de7565b92915050565b6000813590506108f181610dfe565b92915050565b6000806040838503121561090a57600080fd5b6000610918858286016108b8565b9250506020610929858286016108e2565b9150509250929050565b60006020828403121561094557600080fd5b6000610953848285016108cd565b91505092915050565b60006020828403121561096e57600080fd5b600061097c848285016108e2565b91505092915050565b60008060006060848603121561099a57600080fd5b60006109a8868287016108e2565b93505060206109b9868287016108e2565b92505060406109ca868287016108b8565b9150509250925092565b6109dd81610c8c565b82525050565b6109ec81610c9e565b82525050565b60006109ff601f83610c47565b9150610a0a82610d03565b602082019050919050565b6000610a22601483610c47565b9150610a2d82610d2c565b602082019050919050565b6000610a45601b83610c47565b9150610a5082610d55565b602082019050919050565b6000610a68600d83610c47565b9150610a7382610d7e565b602082019050919050565b6000610a8b600783610c47565b9150610a9682610da7565b602082019050919050565b610aaa81610cca565b82525050565b6000606082019050610ac560008301866109d4565b610ad260208301856109d4565b610adf6040830184610aa1565b949350505050565b6000604082019050610afc60008301856109d4565b610b096020830184610aa1565b9392505050565b6000602082019050610b2560008301846109e3565b92915050565b60006020820190508181036000830152610b44816109f2565b9050919050565b60006020820190508181036000830152610b6481610a15565b9050919050565b60006020820190508181036000830152610b8481610a38565b9050919050565b60006020820190508181036000830152610ba481610a5b565b9050919050565b60006020820190508181036000830152610bc481610a7e565b9050919050565b6000602082019050610be06000830184610aa1565b92915050565b600060c082019050610bfb6000830189610aa1565b610c086020830188610aa1565b610c156040830187610aa1565b610c2260608301866109e3565b610c2f60808301856109e3565b610c3c60a08301846109d4565b979650505050505050565b600082825260208201905092915050565b6000610c6382610cca565b9150610c6e83610cca565b925082821015610c8157610c80610cd4565b5b828203905092915050565b6000610c9782610caa565b9050919050565b60008115159050919050565b600073ffffffffffffffffffffffffffffffffffffffff82169050919050565b6000819050919050565b7f4e487b7100000000000000000000000000000000000000000000000000000000600052601160045260246000fd5b7f546865206465706f73697420736c6970206973206e6f74207965742064756500600082015250565b7f496e76616c6964206465706f73697420736c6970000000000000000000000000600082015250565b7f4465706f73697420736c697020646f6573206e6f742065786973740000000000600082015250565b7f646f6e2774206675636b206d6500000000000000000000000000000000000000600082015250565b7f6661696c75726500000000000000000000000000000000000000000000000000600082015250565b610dd981610c8c565b8114610de457600080fd5b50565b610df081610c9e565b8114610dfb57600080fd5b50565b610e0781610cca565b8114610e1257600080fd5b5056fea264697066735822122031ac081e916278b70fb1ef36638e642123c31a74e2a9f540e08bdb4ef4adff6764736f6c63430008040033",
  "immutableReferences": {},
  "source": "// SPDX-License-Identifier: MIT\npragma solidity 0.8.4;\n\nimport \"./TestCoin.sol\";\n\n// \ncontract Deposit {\n  // \n  struct DepositSlip {\n    // \n    uint createTime;\n    // \n    uint expireDate;\n    // \n    uint amount;\n    // \n    bool valid;\n    // ETHERC20\n    bool isETH;\n    // ERC20\n    address contractAddr;\n  }\n\n  // \n  event Log(string);\n\n  // \n  mapping (address => DepositSlip[]) public depositSlips;\n\n  // \n  function saveETH(uint expireDate)\n  public payable returns (uint) {\n    DepositSlip[] storage myDepositSlips = depositSlips[msg.sender];\n    myDepositSlips.push(DepositSlip({\n      createTime: block.timestamp,\n      expireDate: expireDate,\n      amount: msg.value,\n      valid: true,\n      isETH: true,\n      contractAddr: address(0)\n    }));\n    return myDepositSlips.length - 1;\n  }\n\n  // \n  function saveTEST(\n    uint value,\n    uint expireDate,\n    address contractAddr\n  )\n  public payable returns (uint) {\n    TestCoin coin = TestCoin(contractAddr);\n    require(\n      coin.transferFrom(address(this), msg.sender, value),\n      \"failure\"\n    );\n    DepositSlip[] storage myDepositSlips = depositSlips[msg.sender];\n    myDepositSlips.push(DepositSlip({\n      createTime: block.timestamp,\n      expireDate: expireDate,\n      amount: value,\n      valid: true,\n      isETH: false,\n      contractAddr: contractAddr\n    }));\n    return myDepositSlips.length - 1;\n  }\n\n\n  // \n  function redemption(uint index)\n  public returns (bool) {\n    DepositSlip[] storage myDepositSlips = depositSlips[msg.sender];\n    require(index < myDepositSlips.length, \"Deposit slip does not exist\");\n    DepositSlip storage depositSlip = myDepositSlips[index];\n    require(depositSlip.valid, \"Invalid deposit slip\");\n    require(block.timestamp >= depositSlip.expireDate, \"The deposit slip is not yet due\");\n    if (depositSlip.isETH) {\n      payable(msg.sender).transfer(depositSlip.amount);\n    } else {\n      TestCoin coin = TestCoin(depositSlip.contractAddr);\n      coin.transfer(msg.sender, depositSlip.amount);\n    }\n    depositSlip.valid = false;\n    return true;\n  }\n\n  receive()\n  payable external {\n    payable(msg.sender).transfer(msg.value);\n    emit Log(\"don't fuck me\");\n  }\n}\n",
  "sourcePath": "/home/gu/eth/time-deposit/contracts/Deposit.sol",
  "compiler": {
    "name": "solc",
    "version": "0.8.4+commit.c7e474f2.Emscripten.clang"
  },
  "schemaVersion": "3.4.1",
  "updatedAt": "2021-05-28T09:11:00.582Z",
  "networkType": "ethereum",
  "devdoc": {
    "kind": "dev",
    "methods": {},
    "version": 1
  },
  "userdoc": {
    "kind": "user",
    "methods": {},
    "version": 1
  }
}